:100000000C942A000C944F000C9434000C9434008F
:100010000C9434000C9434000C9434000C94340090
:100020000C9434000C9434000C9434000C94340080
:100030000C9434000C9434000C9434000C94340070
:100040000C9434000C9434000C9434000C94340060
:100050000C94340011241FBECFE5D8E0DEBFCDBF25
:100060000E944A000C9471000C9400008BB78064CD
:100070008BBF85B7816085BF8FB780688FBF0895BC
:1000800081B38B7F81BB82B3846082BB81B3806884
:1000900081BB08950E9436000E944000FFCF1F924E
:1000A0000F920FB60F9211242F938F939F9382B3C9
:1000B000806882BB2FEF89E698E121508040904014
:1000C000E1F700C0000082B38F7782BB8AB78064FB
:1000D0008ABF9F918F912F910F900FBE0F901F900D
:0600E0001895F894FFCF13
:00000001FF
