S02100004B65797061645F696E746572666163655F776974685F4C43442E7372656348
S11300000C942A000C943F000C943F000C943F0085
S11300100C943F000C943F000C943F000C943F0060
S11300200C943F000C943F000C943F000C943F0050
S11300300C943F000C943F000C943F000C943F0040
S11300400C943F000C943F000C943F000C943F0030
S11300500C943F0011241FBECFE5D8E0DEBFCDBF16
S113006010E0A0E6B0E0E4EEF6E002C005900D92E8
S1130070A037B107D9F70E94AE010C9470030C9419
S1130080000040E060E083E00E94C20140E061E0E3
S113009083E00E94C20140E062E083E00E94C2016A
S11300A040E063E083E00E94C20141E064E083E059
S11300B00E94C20141E065E083E00E94C20141E088
S11300C066E083E00E94C20141E067E083E00E94B1
S11300D0C2010895CF92DF92EF92FF920F931F9384
S11300E0CF93DF93CDB7DEB760970FB6F894DEBF3A
S11300F00FBECDBF80E1E0E6F0E0DE011196019095
S11301000D928A95E1F7D12CCC24CA9400E0E12C1D
S113011037C06FE083E00E94250340E06E2D83E04A
S11301200E94800210E025C06894FF24F2F8F10ECA
S11301306F2D83E00E94F702082F811119C005C0BA
S11301406F2D83E00E94F702082F0023C9F3EE2DE0
S1130150F0E0EE0FFF1FEE0FFF1F81E090E08C0F29
S11301609D1FE80FF91FE10FF11DC080D39403C058
S11301701F5F1430C8F2D110D12C002321F0E39476
S113018093E09E1530F68C2D60960FB6F894DEBF82
S11301900FBECDBFDF91CF911F910F91FF90EF90D4
S11301A0DF90CF90089541E062E081E00E948002F8
S11301B08FE99FE00197F1F700C0000040E062E0A2
S11301C081E00E9480028FE99FE00197F1F700C06F
S11301D000000895CF93C82F682F62956F7080E058
S11301E00E944A0340E060E081E00E9480020E9495
S11301F0D3006C2F80E00E944A0340E060E081E07D
S11302000E9480020E94D3008FEC97E00197F1F7DF
S113021000C00000CF910895CF93C82F682F629536
S11302206F7080E00E944A0341E060E081E00E9438
S113023080020E94D3006C2F80E00E944A0341E0B8
S113024060E081E00E9480020E94D3008FEC97E07E
S11302500197F1F700C00000CF91089581E00E945A
S1130260EA008FE19EE40197F1F700C000000895D1
S113027082E00E94EA008FE19EE40197F1F700C05A
S1130280000008952FEF81EE94E0215080409040CB
S1130290E1F700C0000040E064E080E00E94C20199
S11302A040E065E080E00E94C20140E066E080E05A
S11302B00E94C20140E067E080E00E94C20140E089
S11302C060E081E00E94C20140E061E081E00E94C0
S11302D0C20140E062E081E00E94C20140E061E0CE
S11302E081E00E9480020E94380188E20E94EA00B4
S11302F08FEC97E00197F1F700C000008EE00E94B8
S1130300EA008FEC97E00197F1F700C0000081E06C
S11303100E94EA008FE19EE40197F1F700C000001B
S113032086E00E94EA008FEC97E00197F1F700C0A5
S113033000000895813019F480E8860F06C08230E9
S113034019F480EC860F01C080E00E94EA008FEC73
S113035097E00197F1F700C0000008950E94420160
S11303600E94410060E081E00E949A010E946A00BC
S11303708F3FE1F3853219F40E942E01F7CF0E94DA
S11303800C01F4CF8130A9F138F0823009F45EC059
S1130390833009F488C008954130D9F018F0423010
S11303A061F008952AB381E090E002C0880F991F9C
S11303B06A95E2F7822B8ABB08952AB381E090E024
S11303C002C0880F991F6A95E2F7809582238ABB41
S11303D008952AB381E090E002C0880F991F6A95BE
S11303E0E2F7982F909592239ABB9BB3892B8BBBF2
S11303F008954130D9F018F0423061F0089527B3E0
S113040081E090E002C0880F991F6A95E2F7822B81
S113041087BB089527B381E090E002C0880F991F3D
S11304206A95E2F78095822387BB089527B381E01C
S113043090E002C0880F991F6A95E2F7982F909573
S1130440922397BB98B3892B88BB08954130D9F088
S113045018F0423061F0089524B381E090E002C0C6
S1130460880F991F6A95E2F7822B84BB089524B301
S113047081E090E002C0880F991F6A95E2F78095A9
S1130480822384BB089524B381E090E002C0880FE6
S1130490991F6A95E2F7982F9095922394BB95B390
S11304A0892B85BB08954130D9F018F0423061F0B2
S11304B0089521B381E090E002C0880F991F6A95E6
S11304C0E2F7822B81BB089521B381E090E002C062
S11304D0880F991F6A95E2F78095822381BB08955E
S11304E021B381E090E002C0880F991F6A95E2F77A
S11304F0982F9095922391BB92B3892B82BB089538
S1130500813019F130F08230E1F1833009F454C0C4
S11305100895442371F0413009F068C02BB381E0A1
S113052090E002C0880F991F6A95E2F7822B8BBB7B
S113053008952BB381E090E002C0880F991F6A955B
S1130540E2F7809582238BBB0895442371F04130F8
S113055009F04CC028B381E090E002C0880F991FD5
S11305606A95E2F7822B88BB089528B381E090E076
S113057002C0880F991F6A95E2F78095822388BB91
S11305800895442369F0413089F525B381E090E072
S113059002C0880F991F6A95E2F7822B85BB0895E4
S11305A025B381E090E002C0880F991F6A95E2F7B5
S11305B08095822385BB0895442369F04130B1F4CA
S11305C022B381E090E002C0880F991F6A95E2F798
S11305D0822B82BB089522B381E090E002C0880F91
S11305E0991F6A95E2F78095822382BB0895813032
S11305F079F028F08230A9F08330E1F024C089B387
S113060090E002C0959587956A95E2F78170089508
S113061086B390E002C0959587956A95E2F781705C
S1130620089583B390E002C0959587956A95E2F7A3
S11306308170089580B390E002C0959587956A957E
S1130640E2F78170089580E008956F70813069F059
S113065028F0823089F08330B1F008958BB3807F25
S11306608BBB8BB3682B6BBB089588B3807F88BB2F
S113067088B3682B68BB089585B3807F85BB85B339
S1130680682B65BB089582B3807F82BB82B3682BDD
S113069062BB08956295607F813069F028F08230F2
S11306A089F08330B1F008958BB38F708BBB8BB31B
S11306B0682B6BBB089588B38F7088BB88B3682B95
S11306C068BB089585B38F7085BB85B3682B65BB04
S11306D0089582B38F7082BB82B3682B62BB089586
S10706E0F894FFCFB8
S11306E43132332D3435362A3738392F25303D2BE2
S9030000FC
