S012000046697273745F5461736B2E7372656318
S11300000C942A000C9434000C9434000C943400A6
S11300100C9434000C9434000C9434000C9434008C
S11300200C9434000C9434000C9434000C9434007C
S11300300C9434000C9434000C9434000C9434006C
S11300400C9434000C9434000C9434000C9434005C
S11300500C94340011241FBECFE5D8E0DEBFCDBF21
S11300600E9436000C942F010C94000060E080E0A4
S11300700E94DB00C0E0D0E00FC041E06C2F80E0C4
S11300800E9464002FEF80E792E02150804090406E
S1130090E1F700C000002196C830D10570F3C8E034
S11300A0D0E00FC040E06C2F80E00E9464002FEF8E
S11300B080E792E0215080409040E1F700C00000CA
S11300C02197209779F7D6CF813019F130F082301B
S11300D0E1F1833009F454C00895442371F04130B0
S11300E009F068C02BB381E090E002C0880F991F2B
S11300F06A95E2F7822B8BBB08952BB381E090E0E5
S113010002C0880F991F6A95E2F7809582238BBB02
S11301100895442371F0413009F04CC028B381E0C4
S113012090E002C0880F991F6A95E2F7822B88BB82
S1130130089528B381E090E002C0880F991F6A9562
S1130140E2F78095822388BB0895442369F0413007
S113015089F525B381E090E002C0880F991F6A9564
S1130160E2F7822B85BB089525B381E090E002C0BD
S1130170880F991F6A95E2F78095822385BB0895BD
S1130180442369F04130B1F422B381E090E002C02D
S1130190880F991F6A95E2F7822B82BB089522B3D8
S11301A081E090E002C0880F991F6A95E2F780957C
S11301B0822382BB08958130C9F028F0823049F14E
S11301C08330D1F10895613059F018F0623029F08C
S11301D008958AB38FEF8ABB08958AB31ABA089533
S11301E08AB31ABA8BB38FEF8BBB0895613059F081
S11301F018F0623029F0089587B38FEF87BB089514
S113020087B317BA089587B317BA88B38FEF88BB3B
S11302100895613059F018F0623029F0089584B3DC
S11302208FEF84BB089584B314BA089584B314BAC9
S113023085B38FEF85BB0895613059F018F06230B3
S113024029F0089581B38FEF81BB089581B311BA6A
S1130250089581B311BA82B38FEF82BB0895F894E5
S1050260FFCFCA
S9030000FC
