S01300005365636F6E645F5461736B2E73726563C3
S11300000C942A000C9434000C9434000C943400A6
S11300100C9434000C9434000C9434000C9434008C
S11300200C9434000C9434000C9434000C9434007C
S11300300C9434000C9434000C9434000C9434006C
S11300400C9434000C9434000C9434000C9434005C
S11300500C94340011241FBECFE5D8E0DEBFCDBF21
S11300600E9436000C9452020C94000060E080E080
S11300700E94C20141E060E083E00E945F00D0E0A2
S1130080C0E001C0D0E060E083E00E9494018111EF
S11300900FC0D1110DC0C83021F460E00E941602D7
S11300A0C0E041E06C2F80E00E941D01CF5FD1E0F1
S11300B060E083E00E949401813029F7E3CF81302E
S11300C0A9F138F0823009F45EC0833009F488C0A5
S11300D008954130D9F018F0423061F008952AB300
S11300E081E090E002C0880F991F6A95E2F7822BA5
S11300F08ABB08952AB381E090E002C0880F991F5B
S11301006A95E2F7809582238ABB08952AB381E039
S113011090E002C0880F991F6A95E2F7982F909596
S113012092239ABB9BB3892B8BBB08954130D9F0A2
S113013018F0423061F0089527B381E090E002C0E6
S1130140880F991F6A95E2F7822B87BB089527B31E
S113015081E090E002C0880F991F6A95E2F78095CC
S1130160822387BB089527B381E090E002C0880F03
S1130170991F6A95E2F7982F9095922397BB98B3AD
S1130180892B88BB08954130D9F018F0423061F0D2
S1130190089524B381E090E002C0880F991F6A9506
S11301A0E2F7822B84BB089524B381E090E002C07F
S11301B0880F991F6A95E2F78095822384BB08957E
S11301C024B381E090E002C0880F991F6A95E2F79A
S11301D0982F9095922394BB95B3892B85BB089552
S11301E04130D9F018F0423061F0089521B381E034
S11301F090E002C0880F991F6A95E2F7822B81BBB9
S1130200089521B381E090E002C0880F991F6A9598
S1130210E2F78095822381BB089521B381E090E0C9
S113022002C0880F991F6A95E2F7982F9095922340
S113023091BB92B3892B82BB0895813019F130F0C0
S11302408230E1F1833009F454C00895442371F0FD
S1130250413009F068C02BB381E090E002C0880F00
S1130260991F6A95E2F7822B8BBB08952BB381E02B
S113027090E002C0880F991F6A95E2F78095822367
S11302808BBB0895442371F0413009F04CC028B36E
S113029081E090E002C0880F991F6A95E2F7822BF3
S11302A088BB089528B381E090E002C0880F991FAD
S11302B06A95E2F78095822388BB0895442369F008
S11302C0413089F525B381E090E002C0880F991F81
S11302D06A95E2F7822B85BB089525B381E090E00F
S11302E002C0880F991F6A95E2F78095822385BB27
S11302F00895442369F04130B1F422B381E090E0E1
S113030002C0880F991F6A95E2F7822B82BB089579
S113031022B381E090E002C0880F991F6A95E2F74A
S11303208095822382BB0895813079F028F0823051
S1130330A9F08330E1F024C089B390E002C0959520
S113034087956A95E2F78170089586B390E002C0BC
S1130350959587956A95E2F78170089583B390E047
S113036002C0959587956A95E2F78170089580B3E8
S113037090E002C0959587956A95E2F7817008959B
S113038080E008958130C9F028F0823049F183304B
S1130390D1F10895613059F018F0623029F00895D0
S11303A08AB38FEF8ABB08958AB31ABA08958AB3C1
S11303B01ABA8BB38FEF8BBB0895613059F018F0E4
S11303C0623029F0089587B38FEF87BB089587B310
S11303D017BA089587B317BA88B38FEF88BB089507
S11303E0613059F018F0623029F0089584B38FEF2A
S11303F084BB089584B314BA089584B314BA85B33E
S11304008FEF85BB0895613059F018F0623029F000
S1130410089581B38FEF81BB089581B311BA089514
S113042081B311BA82B38FEF82BB0895813099F002
S113043028F08230E9F0833041F10895662331F0E9
S1130440613039F48BB38FEF8BBB08958BB31BBA38
S113045008956BBB0895662331F0613039F488B395
S11304608FEF88BB089588B318BA089568BB0895C0
S1130470662331F0613039F485B38FEF85BB08957D
S113048085B315BA089565BB0895662331F06130CC
S113049039F482B38FEF82BB089582B312BA089500
S10B04A062BB0895F894FFCF3C
S9030000FC
