S0130000466F757274685F5461736B2E73726563A7
S11300000C942A000C9434000C9434000C943400A6
S11300100C9434000C9434000C9434000C9434008C
S11300200C9434000C9434000C9434000C9434007C
S11300300C9434000C9434000C9434000C9434006C
S11300400C9434000C9434000C9434000C9434005C
S11300500C94340011241FBECFE5D8E0DEBFCDBF21
S11300600E9436000C9472010C94000060E082E05F
S11300700E941E0110E068C041E062E082E00E943C
S1130080A70040E063E082E00E94A7002FEF81EE2A
S113009094E0215080409040E1F700C000004D2FD3
S11300A0417064E082E00E94A700D1FB442740F93C
S11300B065E082E00E94A700D2FB442740F966E095
S11300C082E00E94A700D3FB442740F967E082E066
S11300D00E94A70040E062E082E00E94A70041E0A5
S11300E063E082E00E94A7002FEF81EE94E02150AC
S11300F080409040E1F700C000004C2F417064E064
S113010082E00E94A700C1FB442740F965E082E039
S11301100E94A700C2FB442740F966E082E00E94E7
S1130120A700C3FB442740F967E082E00E94A700D0
S1130130CF5F01C0C0E0CA3008F49ECFDF5F01C0CA
S1130140D0E0DA30B8F31F5F1436D0F393CF8130A8
S113015019F130F08230E1F1833009F454C008958C
S1130160442371F0413009F068C02BB381E090E082
S113017002C0880F991F6A95E2F7822B8BBB089502
S11301802BB381E090E002C0880F991F6A95E2F7D3
S1130190809582238BBB0895442371F0413009F08C
S11301A04CC028B381E090E002C0880F991F6A9583
S11301B0E2F7822B88BB089528B381E090E002C067
S11301C0880F991F6A95E2F78095822388BB08956A
S11301D0442369F0413089F525B381E090E002C001
S11301E0880F991F6A95E2F7822B85BB089525B382
S11301F081E090E002C0880F991F6A95E2F780952C
S1130200822385BB0895442369F04130B1F422B3BD
S113021081E090E002C0880F991F6A95E2F7822B73
S113022082BB089522B381E090E002C0880F991F39
S11302306A95E2F78095822382BB08958130C9F0E4
S113024028F0823049F18330D1F10895613059F0BA
S113025018F0623029F008958AB38FEF8ABB0895AD
S11302608AB31ABA08958AB31ABA8BB38FEF8BBBC9
S11302700895613059F018F0623029F0089587B379
S11302808FEF87BB089587B317BA089587B317BA5A
S113029088B38FEF88BB0895613059F018F062304D
S11302A029F0089584B38FEF84BB089584B314BAFE
S11302B0089584B314BA85B38FEF85BB0895613074
S11302C059F018F0623029F0089581B38FEF81BBA3
S11302D0089581B311BA089581B311BA82B38FEF2F
S10B02E082BB0895F894FFCFDE
S9030000FC
